:04000000BCEF3FF022
:107F7800026A016A0001C1EF3FF0CAEC3FF08D844C
:107F8800D7EC3FF0C4EF3FF000EF00F0010E966E23
:107F9800000E846E0F0EC16E720ED36E000E016E4F
:107FA800000E026E120084A0DCEF3FF0DEEF3FF01F
:107FB800F3EF3FF0012A140E0164E5EF3FF0E7EF1D
:107FC8003FF0EBEF3FF0000E016E010E021A1A0EA1
:107FD800036EF80EE82EFED7032EFCD700D0025011
:107FE800D8B4F9EF3FF0FBEF3FF0FEEF3FF08D82A2
:087FF800FFEF3FF08D92120033
:020000040020DA
:08000000FFFFFFFFFFFFFFFF00
:020000040030CA
:0E00000000081F1EFF8080FF0FC00FE00F40A2
:00000001FF
