:04000000B9EF3FF025
:107F7200026A016A0001BEEF3FF0C6EC3FF0D5ECA9
:107F82003FF0C0EF3FF000EF00F0010E966E000EE2
:107F9200846E030ED312700ED312D39ED384000EBE
:107FA200026E000E016E1200ECEF3FF0012A140E79
:107FB2000164DEEF3FF0E0EF3FF0E4EF3FF0000E50
:107FC200016E010E021A1A0E036EF80EE82EFED78B
:107FD200032EFCD700D080B0F1EF3FF0F3EF3FF07B
:107FE200D7EF3FF00250D8B4F9EF3FF0FBEF3FF08C
:0E7FF200FEEF3FF08D80FFEF3FF08D9012000C
:020000040020DA
:08000000FFFFFFFFFFFFFFFF00
:020000040030CA
:0E00000000081F1EFF8080FF0FC00FE00F40A2
:00000001FF
