:0400000053EF3FF08B
:107EA200C28012000C6A0B6A000158EF3FF074ECBA
:107EB2003FF0CBEC3FF05AEF3FF000EF00F0016EE5
:107EC200C198C19AC1500118F00B0118C16EC08E41
:107ED200C050F80B0409C06EC050C70B1009C06E29
:107EE20051EC3FF01200010E926E010E966E000EE2
:107EF200896E000E8D6E000E806E000E846E0E0E68
:107F020060EC3FF0720ED36E000E0B6E000E0C6E24
:107F1200000E0A6E000E096E1200000E056E000EB3
:107F2200046E9DEF3FF0030E036E980EE82EFED70F
:107F3200032EFCD7044A052A0150045C025005585E
:107F4200D8A0A6EF3FF0A8EF3FF094EF3FF0120069
:107F5200056E05C003F003460346C2500318C30B67
:107F62000318C26EC282C2B2B9EF3FF0BBEF3FF05C
:107F7200B4EF3FF0C350C4CF03F0046A03C004F06F
:107F8200036A0310066E0450076E06C001F007C0B4
:107F920002F01200000EA9EC3FF0D8900134096EF5
:107FA20002340A6E000E026E640E016E8EEC3FF019
:107FB200010E0924016E000E0A20026E8EEC3FF0C3
:107FC2008DB2E6EF3FF0E9EF3FF0010EEAEF3FF04E
:107FD200000EFF0A086E08468D500818FD0B08189F
:107FE2008D6E020E0A5CD8B0F9EF3FF0FBEF3FF066
:0E7FF200FEEF3FF08D84FFEF3FF08D94120004
:020000040020DA
:08000000FFFFFFFFFFFFFFFF00
:020000040030CA
:0E00000000081F1EFF8080FF0FC00FE00F40A2
:00000001FF
